:020000040800F2
:1000000028110020A1010008473900080933000821
:100010004539000835110008A1460008000000001D
:100020000000000000000000000000006D3C00081F
:100030003D12000800000000773B0008413E000828
:10004000BB010008BB010008BB010008BB010008A0
:10005000BB010008BB0100083F120008BB010008FB
:10006000BB010008BB010008BB010008BB01000880
:1000700039110008BB01000845110008BB01000848
:10008000511100085D110008BB010008BB01000808
:10009000BB010008BB010008BB010008BB01000850
:1000A000BB010008BB010008BB010008BB01000840
:1000B000BB010008053F0008BB010008BB010008A8
:1000C000BB010008BB010008BB010008BB01000820
:1000D000BB010008714600087D46000889460008FB
:1000E000BB010008BB010008BB010008BB01000800
:1000F000BB010008BB010008BB010008BB010008F0
:10010000BB010008BB010008BB010008BB010008DF
:10011000F5410008BB010008BB010008BB01000855
:10012000BB0100086911000875110008BB01000837
:10013000BB010008BB010008BB010008BB010008AF
:10014000BB010008BB010008BB010008BB0100089F
:10015000BB010008811100088D11000895460008B8
:10016000BB010008BB010008BB010008BB0100087F
:10017000BB010008BB010008BB0100080000000033
:10018000BB010008BB010008DFF810D000F00EFE34
:10019000004800475D4C0008AFF3008028110020A4
:1001A0000648804706480047FEE7FEE7FEE7FEE711
:1001B000FEE7FEE7FEE7FEE7FEE7FEE7D93E0008C2
:1001C000890100082DE9F05F0546002092469B4614
:1001D00088460646814640241BE02846414647465D
:1001E000224600F0DEFC53465A46C01A914110D315
:1001F00011461846224600F0C5FC2D1A67EB01088F
:100200004F4622460120002100F0BCFC17EB0009FC
:100210004E41201EA4F10104DFDC484631462A4647
:100220004346BDE8F09F40EA01039B0703D009E085
:1002300008C9121F08C0042AFAD203E011F8013BD2
:1002400000F8013B521EF9D27047D2B201E000F82B
:10025000012B491EFBD270470022F6E710B513466A
:100260000A4604461946FFF7F0FF204610BD00007D
:100270000FB400B58DB010A909900B9000914FF00C
:10028000FF300A9000200C90054806900548079022
:100290006A4609A80F9900F0BBFC0DB05DF814FB8D
:1002A0002D0C00084B0C00082DE9FF5F1D464FF098
:1002B000FF3BD5E9014691465F464FF00008A9692A
:1002C0007F1C01988847296A824688470028F6D112
:1002D000BAF1FF3F0CD024F4C064002E19DD600693
:1002E00014D5BAF12B0F09D0BAF12D0F0ED103E0BE
:1002F000584604B0BDE8F09F44F48064A9697F1CAF
:1003000001988847761E8246002E02DDBAF1300F32
:1003100003D0B9F1000F26D032E0A969761E44F46B
:1003200000747F1C019888478246002E05DDBAF1D3
:10033000780F06D0BAF1580F03D0B9F1000F10D0E2
:100340001EE0B9F1000F02D0B9F1100F18D1A96960
:10035000761E24F400747F1C019888478246102082
:1003600002E0082000E00A20814609E008FB0908B5
:10037000A969761E44F400747F1C01988847824660
:10038000002E05DD4946504600F02DFC0028EDDA30
:10039000E96901988847A00502D46FF00100A8E739
:1003A000E00725D1600613D5600502D5C8F100002D
:1003B00000E0404629680A1D2A600968220501D527
:1003C000087015E0220701D5088011E008600FE0F1
:1003D0002868011D29600068210502D580F8008089
:1003E00006E0210702D5A0F8008001E0C0F80080F7
:1003F00038467EE72DE9FF4F087883B09946FF28FD
:1004000005D0491C2D2804D00024002008E000203D
:100410000BE00124F9E700EB800003EB4000491CEE
:100420000B78FF2BF7D104B14042002302931478DC
:1004300019461D462D2C01D02B2C04D1521C2D2CDD
:1004400013D000240294AA461478FF2C0FD00A255A
:10045000A3FB057801FB05814FF0000C03FB0C1199
:10046000521CE3194AEB0101EEE70124EAE781445B
:1004700053EA010002D019F5C87F06DA039800217B
:10048000C0E9001107B0BDE8F08F0025AE4E2F4641
:10049000DFF8B882184600F07DFCCDE90001B9F123
:1004A000000002DAC9F1000400E004460023A74A74
:1004B0001AEB030B42EB045A12E0E00707D02A467E
:1004C00033463846414600F0ECF9074688462A464E
:1004D00033461046194600F0E4F905460E4664100E
:1004E000002CEAD1DDE90001B9F1000F5A4653466C
:1004F00006DA00F048FA3A46434600F044FA05E0CE
:1005000000F0CFF93A46434600F0CBF9029A0AB11F
:1005100081F00041039AC2E90001B3E72DE9FF4FE2
:100520001F468DB0D7E901464FF0FF382E204546D3
:100530004FF000090B90B9696D1C0E988847396A15
:10054000824688470028F6D1BAF1FF3F0AD024F44A
:10055000D064002E11DDBAF12B0F08D0BAF12D0FA7
:100560000BD102E0404611B08DE744F48064B969D4
:100570006D1C0E9888478246761E6946600501D537
:100580002D2000E02B208DF8000001F1010B0DF172
:10059000200809E0B9696D1C0E98884782460F98BB
:1005A00044F40074761E0560002E02DDBAF1300FAF
:1005B000F0D00B998A453ED144F0800406E00F99B3
:1005C000681CA9F1010944F400740860B9696D1C44
:1005D000761E0E98884782463028F0D02BE00B9983
:1005E0008A4505D1200603D444F08004761E18E025
:1005F000504604F0EAF808B30DF11301761E44F4F6
:1006000000748B4508D2AAF130000BF8010B2006CC
:1006100007D5A9F1010003E0200602D409F1010089
:100620008146A00502D50F99681C0860B9696D1C48
:100630000E9888478246002ED1DC53E0002E51DD13
:10064000BAF1650F02D0BAF1450F4BD1A00549D5DB
:10065000B9696D1C24F44074761E0E988847824652
:10066000002E0CDD2B2804D0BAF12D0F07D144F455
:100670008074B9696D1C0E9888478246761EE00525
:1006800001D52D2100E02B2108F8011BCDF82C808D
:1006900021E00DF12901761E44F4007488450CD246
:1006A000AAF1300010F0FF0088F8000002D10B9989
:1006B000884509D908F1010806E0E00501D524487C
:1006C00001E042F20F708146B9696D1C0E988847AF
:1006D00082460F980560002E04DD504604F075F840
:1006E0000028D6D1F9690E988847FF208BF80000C2
:1006F00088F800000020069007904B466A4608A93B
:1007000006A8FFF777FEA00502D46FF001002AE7E4
:1007100014F0240F0AD0E00714D1DDE9061238687E
:10072000031D3B600068C0E900120BE0DDE9060133
:1007300000F00CFA0146E00704D13868021D3A6067
:100740000068016028460EE7000014400000F03FFA
:10075000F1D8FFFF2DE9FE4F804681EA0300C00F6C
:100760000C46009021F0004123F00045B8EB020058
:10077000A94105D24046214690461C460B460246FA
:1007800023F00040104347D0270DC7F30A00C3F3FE
:100790000A510290401A019040286BDAC3F313000B
:1007A00040F4801B0098924620B10023D2EB030A4C
:1007B00063EB0B0B01985946C0F14002504600F024
:1007C000E1F906460D4650465946019A00F0F9F9FE
:1007D00010EB08006141002487EA115284EAE773B4
:1007E0001A4340D0009A62B3019A012A4FEA075295
:1007F00015DC001B61EB02014FF0004202EA0752D8
:10080000CDE90042001C41F5801132462B4600F034
:1008100073FA03B0BDE8F08F40462146F9E7001BAC
:1008200061EB0201001C41F5801300185B412018A8
:10083000A2F5001747EB030140EAD570B6196D41E8
:1008400011E06D084FEA360645EAC0754FEA0752D7
:10085000001B61EB0201001C41F5801149084FEAC1
:1008600030000019514132462B4603B0BDE8F04F2D
:1008700000F033BA0098012240000023D0EB0202BE
:1008800063EBE073009821464FEAE074B8EB000098
:1008900061EB0401E9E783F000435BE781F000418D
:1008A00058E72DE9FE4F81EA030404F0004421F0EB
:1008B000004100944FF0000B23F0004350EA010484
:1008C0005ED052EA03045BD0C3F30A54C1F30A5565
:1008D0002C44A4F2F3340194A0FB0254C1F313019D
:1008E00041F48011C3F3130343F4801301FB02446A
:1008F00000FB034E840A970A44EA815447EA83576F
:10090000A4FB076802958D0A05FB07854FEA932C27
:1009100004FB0C542705029D4FEA065847EA163798
:10092000B5EB08056EEB070C870E920E47EA8117B0
:1009300042EA8312A7FB0201B6EB0B0164EB000451
:100940002B0D43EA0C335E1844EB1C50DA4651463B
:10095000E7FB0201C5F313044FEA0B3343EA1453D8
:100960004FEA0432019C43EA0603A4F10C0402940A
:10097000009CCDE900B400F0BFF903B0BDE8F08FF2
:1009800000200146F9E72DE9F04D81EA030404F067
:10099000004B21F0004514464FF0000A23F00041BF
:1009A00050EA050220D054EA01021DD0C5F30A57CF
:1009B0000246C5F31303C1F31300C1F30A5640F412
:1009C000801543F48013A7EB0608101BD64608F2E7
:1009D000FD3873EB050002D308F1010801E092181D
:1009E0005B41B8F1000F03DA00200146BDE8F08D4D
:1009F00000204FF48011064684460EE0171B73EB6F
:100A0000050705D3121B63EB050306434CEA010CF3
:100A100049084FEA300092185B4150EA0107EDD1D6
:100A200052EA030012D082EA040083EA0501084377
:100A300005D0101BAB4106D20122002306E00022A4
:100A40004FF0004302E06FF0010253101AEB060072
:100A50004CEB085110EB0A0041EB0B01BDE8F04DE7
:100A600000F03BB90EB5C10F80EAE0700844CA0738
:100A7000002140F233438DE80E000A460B4600F099
:100A80003BF903B000BD70B5C1F30A5201F0004557
:100A90000024C1F3130140F2FF3341F480119A4264
:100AA00001DA002070BD40F233439A42A2F2334291
:100AB00003DC524200F075F800E090402C43F1D086
:100AC000404270BD00F0004230F000400AD0C10D3D
:100AD00001F56071C0F3160042EA0151C2084007F7
:100AE00011437047002001467047000030B5041ED6
:100AF00071F1000404DB4FF00044404264EB01015B
:100B0000141E73F1000405DB1C464FF000435242F3
:100B100063EB04038B4208BF824230BD30B5041E34
:100B200071F1000404DB4FF00044404264EB01012A
:100B3000141E73F1000405DB1C464FF000435242C3
:100B400063EB0403994208BF904230BD01F00043BB
:100B500030B421F0004150EA010206D00A0DA2F59E
:100B60006072C1F31301002A02DC30BC0020704720
:100B7000440F44EAC104C100E01830BC00EBC2508D
:100B800000F074B8202A04DB203A00FA02F10020B9
:100B900070479140C2F1200320FA03F319439040BB
:100BA0007047202A04DB203A21FA02F00021704726
:100BB00021FA02F3D040C2F12002914008431946C5
:100BC0007047202A06DBCB17203A41FA02F043EAAD
:100BD000E07306E041FA02F3D040C2F120029140F6
:100BE0000843194670473A2800D2303820F02002D6
:100BF000412A01D3A2F13700884201D34FF0FF30E0
:100C0000704700000268114413780160184670476D
:100C1000D1600449516104491162002111611146FA
:100C200000F0DCB8050C0008D10D0008426842B1A4
:100C3000016811F8013B23B1521EC0E900121846A9
:100C400070470121C160881E704742685AB1C3686D
:100C5000016843B983688B4205D0491E521CC0E924
:100C60000012002070474FF0FF3070470029A8BFE6
:100C70007047401C490008BF20F00100704710B4C5
:100C8000B0FA80FC00FA0CF050EA010404BF10BC7A
:100C9000704749B1CCF1200421FA04F411FA0CF1A7
:100CA00018BF012121430843A3EB0C01CB1D4FEAE0
:100CB00000614FEA102042BF002010BC704700EBDB
:100CC000C35010440029A4BF10BC7047401C490009
:100CD00008BF20F0010010BC704710B5141E73F15E
:100CE000000408DA401C41F1000192185B411A43EC
:100CF00001D120F0010010BD2DE9F04D92469B4638
:100D000011B1B1FA81F202E0B0FA80F220329046DD
:100D1000FFF738FF04460F4640EA0A0041EA0B019C
:100D200053465A46084313D0114653EA010019D0DE
:100D3000C8F140025046FFF734FF05460E465046C4
:100D400059464246FFF71EFF084305D0012004E044
:100D500020463946BDE8F08D0020054346EAE0769E
:100D60002C4337430A986305E40AA0EB08000022ED
:100D7000FD0A44EA47540A3002D500200146E9E75B
:100D8000010510196941DDE9084500196941BDE80F
:100D9000F04DA2E70EB540F2334202920022CDE9B7
:100DA00000221346FFF7A8FF03B000BD064C074D15
:100DB00006E0E06840F0010394E80700984710342B
:100DC000AC42F6D3FFF7E4F9307900085079000817
:100DD000C0B24FF4F05100F099B900002DE9F34F83
:100DE0008BB04FF0000801F10C000C464FF0010BE6
:100DF00046460DF1080A0190626901210198904769
:100E0000051E2DD0252D2CD0216A8847C0B16269DE
:100E1000012101989047216A88470028F7D1411E97
:100E200062690198904700E0761CA1690B98884799
:100E3000216A88470028F7D1E1690B988847DBE7EA
:100E4000A1690B9888470746A84201D1761CD3E7D1
:100E5000E1690B9888477F1C02D1B8F1000F6FD071
:100E600047E1002762693D463946019890472A28A4
:100E700004D162690121019890470125DFF8889229
:100E80006269012101989047A0F130010A290AD234
:100E90004F45E5DC07EB870100EB4107303FDFD42E
:100EA00045F01005ECE7E90601D46FF000476C2827
:100EB0000AD04C2814D0682815D06A280DD0742880
:100EC0001CD07A281AD01DE0626901210198904750
:100ED0006C2802D045F0040514E045F002050DE051
:100EE00045F020050AE062690121019890476828D1
:100EF00002D045F0080505E045F40065626901216E
:100F000001989047C4E9015765283DD019DC58285D
:100F10007AD00CDC452837D004DC252826D041289F
:100F200031D131E046282FD047282CD12CE05B2846
:100F300077D0612828D063287CD0642823D15AE058
:100F4000D1E06F2848D008DC66281DD067281BD068
:100F5000692821D06E2816D127E0702845D0732843
:100F600068D0752847D078280DD14DE0A1690B983D
:100F70008847054625283FF469AFE1690B98884703
:100F80006D1C3FF46AAFB4E023466A466FF001007F
:100F90000B99FFF7C3FA9FE045F040006060A80797
:100FA00023464FF0000236D43EE0E8077FF447AF17
:100FB0002068011D21600068290501D506701BE726
:100FC000290701D5068017E7A90703D5F117C0E95E
:100FD000006111E706600FE745F040006060A80778
:100FE00023464FF0080216D41EE040F60E0125EA13
:100FF0000100606016E045F040006060A8072346ED
:101000004FF00A0207D40FE045F040006060A807E7
:1010100008D5234610226FF001000B99AFF3008032
:101020005AE007E0234610226FF001000B99FFF70A
:101030003BF951E04FF000094F464B46632802D080
:101040005B2807D041E02079C00601D40120A060D0
:1010500001273AE062690121019890475E2805D195
:101060004FF001096269494601989047216939B9F1
:1010700000210A46534643F82120491C0829FADB7F
:10108000B0B3216969B9C11700EBD16253110AEB02
:10109000830122F01F02821A01200B689040034353
:1010A0000B6062690121019890475D28E8D1B9F190
:1010B000000F09D00020514651F82020D24341F8BA
:1010C0002020401C0828F7DB02AB224600976FF077
:1010D00001000B99AFF3008000280CDA401C08D106
:1010E000BBF1000F05D04FF0FF300DB0BDE8F08F21
:1010F000FFE74046F9E7E90701D108F10108064496
:101100004FF0000B78E60000CCCCCC0C7F2801D946
:10111000002208E0064A02EB5002C007127800D114
:10112000120902F00F0201209040084070470000B1
:10113000F0780008FEE70000014800F019BA00004E
:10114000A8070020014800F013BA0000080800209A
:10115000014800F00DBA0000E8060020014800F048
:1011600007BA000048070020014800F001BA00005B
:1011700068080020014800F0FBB9000028060020A4
:10118000014800F0F5B90000C8080020014800F04F
:10119000EFB900008806002001681823CAB2103A8F
:1011A000B2FBF3F2054B6FF30901032A9B5CC365A5
:1011B00000D9091D8165084670470000D0780008F5
:1011C00010B5014600208B698A6A4FF0C07453B194
:1011D000B3F5005F15D072B1012A0CD0022A0AD0F3
:1011E000032A09D104E01AB1012A06D0022A03D148
:1011F000C96AC90100D5012010BDC96AA142FAD04F
:1012000010BD002AF7D0012AF2D0022AF3D0032A17
:10121000F3D010BD30B50468256825F4802525601D
:10122000046863608368402B036803D0996000689A
:10123000C26030BD9A600068C16030BD7047012057
:1012400000F018BB2DE9FF410027DDE90A460097B1
:101250008DF80000FD208DF801008DF80210019737
:10126000100A8DF803008DF804208DF80530200E4B
:101270008DF80600200C0C9D8DF807000297200ABF
:101280008DF8080003978DF809406B208DF80A60EF
:101290008DF80C008DF80B500D21684604F024FBEE
:1012A000BDE8FF811FB5002200928DF80000019279
:1012B0000292039201206A46112931D2DFE801F03F
:1012C000090B101230143016181A1C1E3020242955
:1012D00022001F2000E020208DF8010002201FE0E6
:1012E0002120F9E72420F7E72720F5E73120F3E76D
:1012F0003320F1E73520EFE73620EDE73720EBE745
:101300003A20E9E73B20E7E742208DF801006C2016
:1013100003E043208DF801007A208DF802000320BD
:101320006B211154411C104604F0DEFA1FBD1FB59D
:10133000002100918DF80000FF208DF8010066204B
:101340008DF802006B200191029103918DF803004A
:101350000421684604F0C8FA1FBD7FB5002500953A
:101360008DF80000F6208DF8010001958DF802102F
:10137000089C100A8DF804208DF803008DF80530C4
:101380008DF806406B208DF8070002950395082123
:10139000684604F0A9FA7FBD72B6FEE72DE9F84F62
:1013A000804614460D46424800F0ECFF0127414EAE
:1013B0004FF4487A4FF00009B8F1010F03D0B8F1AB
:1013C000000F41D036E00121B846E3B2AAB2084688
:1013D0000097FFF7C2FFB0780028FCD04F4686F890
:1013E0000290E3B2AAB201210320CDF80080FFF7FA
:1013F000B4FFB0780028FCD0B770E3B2AAB20021E5
:101400000220CDF80080FFF7A8FFB0780028FCD0BC
:10141000B770E3B2AAB200210420CDF80080FFF734
:101420009CFFB0780028FCD0B77002F05DFD5046FC
:1014300003F036FA1E496FF0010009680861BDE843
:10144000F84F1B4800F05EBFE3B2AAB200210120B2
:101450000097FFF782FFB0780028FCD0C84686F8D6
:101460000290E3B2AAB2002103200097FFF775FFB4
:10147000B0780028FCD086F80280B946E3B2AAB260
:10148000012102200097FFF768FFB0780028FCD008
:10149000474686F80280E3B2AAB201210420CDF8C3
:1014A0000090FFF75AFFB0780028FCD0BCE700009E
:1014B000E8030020000000202DE9F0410446876D7C
:1014C00000F0E2FA064694F835000025022806D01E
:1014D0008020606584F834500120BDE8F0812068E8
:1014E000016821F0160101602068416921F0800146
:1014F0004161206C08B9A06C20B12068016821F01E
:10150000080101602068016821F0010101600CE020
:1015100000F0BAFA801B052807D920206065032057
:1015200084F8350084F83450D7E720680068C00795
:10153000EED194F85C103F208840B860012084F818
:10154000350084F834500020C7E790F835100229A0
:1015500003D08021416501207047052180F83510B6
:101560000068016821F0010101600020704700005F
:101570002DE9F84304464FF00009CDF80090634888
:101580004FF41651A56D0068B0FBF1F72E6894F882
:101590005C10082000FA01F131420FD021680A687E
:1015A00052070BD50A6822F004020A6094F85C1016
:1015B0008840A860606D40F00100606594F85C10A0
:1015C0004FF0010808FA01F0304208D0216849695B
:1015D000090604D5A860606D40F00200606594F8CB
:1015E0005C1004208840304208D0216809688907CF
:1015F00004D5A860606D40F00400606594F85C104C
:1016000010208840304218D021680968090714D595
:10161000A86020680168490304D50068000308D564
:10162000A16C07E00168C90503D4016821F0080135
:101630000160216C09B12046884794F85C10202095
:101640008840304231D021680968C9062DD5A8608C
:1016500094F8350005282068016806D0490347D56D
:10166000006800031DD4616C1CE021F016010160CC
:101670002068416921F080014161206C08B9A06CAB
:1016800020B12068016821F00801016094F85C1025
:101690003F208840A86084F8358084F83490216D1C
:1016A0001FE0E16B09B120468847606D00282BD010
:1016B000606DC00714D0052084F8350020680168EB
:1016C00021F0010101600098401C0090B84203D84D
:1016D00020680068C007F6D184F8358084F834901B
:1016E000E16C002910D001B02046BDE8F043084766
:1016F0000168C905D5D4016821F01001016084F8A2
:10170000358084F83490CCE7BDE8F883540000209D
:101710002DE9F041044600F0B7F906465CB102201D
:1017200084F83500002584F834502068016821F0E1
:10173000010101600DE00120BDE8F08100F0A4F995
:10174000801B052805D920206065032084F835001A
:10175000F2E720680068C007F0D1226811682048CD
:101760000140D4E901031843D4E903363343184355
:1017700063691843A3691843E3691843236A18434C
:101780000843616A042903D1D4E90B1319430843C0
:10179000106020684069666A20F0070130460E43F9
:1017A000012704280CD1A06A0643E06A40B1204614
:1017B000FFF706FD20B14020606584F83570BAE778
:1017C000206846612046FFF7E7FC94F85C203F2143
:1017D00091408160656584F835700020ACE70000B9
:1017E0003F8010F02DE9F0410446866D90F83400FA
:1017F000002501280DD0012084F8340094F83570BC
:101800000020012F07D084F8340002252846BDE8C7
:10181000F0810220FBE7022784F8357060652046DE
:10182000FFF7F8FC94F85C103F208840B060206817
:10183000016841F016010160206C20B12068016848
:1018400041F0080101602068016841F00101016078
:10185000DCE7000010B5012807D10122042103486C
:1018600000F00CF902490120C86110BD00040240DB
:1018700000000020044910B50A68024202D0086046
:10188000FFF7E8FF10BD0000143C01402DE9F84FC0
:10189000DFF8BCA10022012503264FF00F090AF151
:1018A000040BAAF1040E00BF0B6805FA02F42340F2
:1018B000A34270D10F7907F00307012F01D0022F47
:1018C00016D187684FEA420806FA08FC27EA0C0797
:1018D000D1F80CC00CFA08FC4CEA070CC0F808C0A0
:1018E0004768A7430C79C4F3001494403C43446018
:1018F0000C79E443A4070AD0C4684FEA420C06FA04
:101900000CF7BC438F6807FA0CF72743C7600C79C4
:1019100004F00304022C12D1D40800EB840CDCF890
:1019200020405707FF0E09FA07F824EA0804D1F807
:10193000108008FA07F848EA0408CCF82080046808
:101940004FEA420C06FA0CF7BC430F7907F0030785
:1019500007FA0CF7274307604C6814F4403F70D037
:101960003C4C276847F480472760246822F003072F
:1019700004F480440094384C07EB040CDCF808486D
:1019800097074FEA177809FA08F7BC43334FB84274
:1019900002D1002724E054E0314FB84201D10127A1
:1019A0001EE0304FB84201D1022719E02E4FB84255
:1019B00001D1032714E02D4FB84201D104270FE0D5
:1019C0002B4FB84201D105270AE02A4FB84201D176
:1019D000062705E0284FB84201D1072700E0082775
:1019E00007FA08F72743CCF80878DAF8004057469A
:1019F000D1F804C09C435FEACC2C00D51C433C606A
:101A0000DBF800405F46D1F804C09C435FEA8C2CB1
:101A100000D51C433C60DEF800407746D1F804C096
:101A20009C435FEA8C3C00D51C433C60084F083F58
:101A30003C68D1F804C09C435FEACC3C00D51C4311
:101A40003C60521C102AFFF42FAFBDE8F88F000055
:101A5000083C014044380240003001400000024090
:101A60000004024000080240000C02400010024046
:101A70000014024000180240001C02400AB18161BB
:101A800070470904FBE700000148806870470000C8
:101A90004800002002488168027811448160704744
:101AA000480000200B4810B5016841F40071016046
:101AB000016841F480610160016841F48071016056
:101AC000032000F06FF80F2000F006F800F024F873
:101AD000002010BD003C024070B50D4D04464FF48F
:101AE0007A712878B1FBF0F00A490968B1FBF0F08F
:101AF00000F00CFB48B9102C07D200222146501EE2
:101B000000F030F800206C6070BD012070BD000056
:101B100048000020540000200A4808B5016841F43C
:101B200080410160006800F4804000900548001F7B
:101B3000016841F080510160006800F08050009021
:101B400008BD000044380240002809DB00F01F02F5
:101B5000012191404009800000F1E020C0F800110F
:101B600070470000F0B40E4B1B680C46C3F3022311
:101B7000C3F10705042D00D90425191D072901D239
:101B8000002300E0DB1E012606FA05F1491E214074
:101B900099409E40761E16403143F0BC02F0F6BDDF
:101BA0000CED00E0064900F0070208684FF6FF035D
:101BB000184040EA0220034A1043086070470000C2
:101BC0000CED00E00000FA052DE9F0470E46050097
:101BD00065D0DFF81481D8F80000F7B200F00700F4
:101BE000B04207D288F80070D8F8000000F0070073
:101BF000B04254D128683D4C810712D5400703D527
:101C0000206840F4E05020602878000703D5206861
:101C100040F4604020602068A96820F0F00008438C
:101C200020602878C0072DD030496868083901281D
:101C300012D0022813D0032811D00968890700297F
:101C40002DDA216821F0030101432160FFF71CFF19
:101C5000814641F2883A0EE009688903EFE7096896
:101C60008901ECE7FFF710FFA0EB0901514502D90C
:101C70000320BDE8F0872068696800F00C00B0EB35
:101C8000810FEFD1D8F80010404601F00701B142B2
:101C900007D90770006800F00700B04201D00120AA
:101CA000E7E72878400705D52068E96820F4E05088
:101CB000084320602878000706D52068296920F4A9
:101CC000604040EAC100206000F038F82168084A0E
:101CD000C1F30311515CC84006490860064800681A
:101CE000FFF7FAFE0020C4E7003C0240083802403B
:101CF000D8780008540000204C0000200448054912
:101D000000680968044AC1F38221515CC8407047E9
:101D10005400002008380240E878000804480549CB
:101D200000680968044AC1F34231515CC8407047F9
:101D30005400002008380240E8780008154810B523
:101D4000006810F00C02144813D01449042A0FD074
:101D5000082A0ED10F4C241F2268236802F03F028C
:101D60005B0207D52068C0F38810A0FB010106E0E4
:101D7000084610BD2168C1F38811A1FB00010023B2
:101D8000FEF720FA2168C1F30141491C4900B0FB6C
:101D9000F1F010BD083802400024F40040787D01C5
:101DA0002DE9F84F04006ED02078DFF84C93C0077F
:101DB000A9F104054AD009F104000168C1F38101C9
:101DC000012908D00068C0F3810002280AD1D9F89F
:101DD0000000400206D52868800337D560680028D7
:101DE000E1D033E06068B0F5803F10D0B0F5A02FAF
:101DF000286810D020F480302860286820F48020E3
:101E000028606068A8B1FFF73FFE06460DE028682D
:101E100040F48030F4E740F480202860F7E700BF0A
:101E2000FFF732FE801B642873D828688003F7D53B
:101E30000CE0FFF729FE064605E000BFFFF724FE91
:101E4000801B6428F0D828688003F7D42078DFF856
:101E5000AC8280074FF0000A3ED5A748001D0168FC
:101E600011F00C0F08D00068C0F3810002280BD1DC
:101E7000D9F80000400207D42868800716D5E0682A
:101E8000012800D112E033E1E068B8B10120C8F8C0
:101E90000000FFF7F9FD064605E000BFFFF7F4FD7F
:101EA000801B0228C0D828688007F7D528682169D8
:101EB00020F0F80040EAC10028600DE0C8F800A05A
:101EC000FFF7E2FD064604E0FFF7DEFD801B022877
:101ED0001FD828688007F7D42078000722D5864FBE
:101EE00087486169703771B101210160FFF7CCFD4E
:101EF000064604E0FFF7C8FD801B022809D83868B1
:101F00008007F7D50EE0C0F800A0FFF7BDFD06463C
:101F100005E082E0FFF7B8FD801B02287DD8386815
:101F20008007F7D42078400768D5DFF8CCB10027C8
:101F30000BF13C0BDBF80000C0000BD4DBF8001009
:101F400041F08051CBF80010DBF80000012700F0D1
:101F5000805000906B4E3068C00510D4306840F45B
:101F600080703060FFF790FD009005E0FFF78CFD7A
:101F70000099401A022850D83068C005F6D55E4E48
:101F8000A0686C3601280FD00528306810D020F0EA
:101F900001003060306820F004003060A068B8B103
:101FA000FFF772FD00900FE0306840F00100F4E7A9
:101FB00040F004003060F7E7FFF766FD0099411A32
:101FC00041F28830814266D830688007F4D50EE04F
:101FD000FFF75AFD009007E0FFF756FD0099411A00
:101FE00041F28830814256D830688007F4D42FB14E
:101FF000DBF8001021F08051CBF80010A069C8B3C5
:102000003D49091D0968C1F3810102294AD002280E
:10201000504607D0C8F8600000E03CE0FFF734FD10
:1020200004463BE04746C8F86000FFF72DFD064632
:1020300005E000BFFFF728FD801B02282BD8286889
:102040008001F7D4D4E907010843A16A2E4A490860
:1020500002EB0141626A41EA8211084394F82C10B4
:1020600040EA0161C9F8001001203866FFF70CFD55
:10207000044606E03EE000BFFFF706FD001B022815
:1020800009D828688001F7D534E000BFFFF7FCFCD1
:10209000001B022802D90320BDE8F88F28688001C0
:1020A000F4D427E00128F7D0D9F80000E26900F461
:1020B000800191421CD1226A00F03F01914217D168
:1020C00047F6C071626A0140B1EB821F10D1A26A6B
:1020D0004FF0FF3300F4403103EB5202B1EB024FFB
:1020E00006D194F82C1000F07060B0EB016F01D0B5
:1020F0000120D1E70020CFE704380240000047422A
:10210000800E4742007000400000FFFF10B5401EE7
:10211000B0F1807F01D3012010BD4FF0E024606159
:102120000F21601702F032FB0020A0610720206120
:10213000002010BD7047704710B590F83C20012A70
:1021400022D0012280F83C20CA688C6822F44072B8
:1021500022434C6822F4806222430C6822F400621D
:1021600022430C6922F4805222434C6922F400522B
:102170002243C969002322F480420A4301684A6469
:1021800080F83C30002010BD022010BD70B590F8E2
:102190003C20012A32D0012480F83C40022280F801
:1021A0003D2003685A689D6822F070060A68324331
:1021B0005A60134B02689A4214D0B2F1804F11D08A
:1021C000104B9A420ED0104B9A420BD00F4B9A42B2
:1021D00008D00F4B9A4205D00E4B9A4202D00E4BBC
:1021E0009A4204D1496825F080031943916080F830
:1021F0003D40002180F83C10084670BD022070BDB3
:10220000000001400004004000080040000C0040B5
:1022100000040140004001400018004010B50400D7
:1022200003D094F83D0010B107E0012010BD00205C
:1022300084F83C00204600F01FF8022084F83D009E
:10224000211D206801F064FE012084F8460084F816
:102250003E0084F83F0084F8400084F8410084F890
:10226000420084F8430084F8440084F8450084F870
:102270003D00002010BD000008B51D4902681D4842
:102280008A4207D1016841F001010160006800F055
:10229000010020E01749184B091F9A4211D1086824
:1022A00040F0020008600868002200F00200009080
:1022B00004211D20FFF756FCBDE808401D20FFF754
:1022C00043BC0E4B9A4208D1086840F004000860F5
:1022D000086800F00400009008BD09498A42FBD15B
:1022E000016841F002010160006800F00200F2E7BD
:1022F0000000014044380240000400400008004053
:102300000004014090F83D10012901D001207047E0
:10231000022180F83D100168CA6842F00102CA60DB
:1023200000681149884214D0B0F1804F11D00F4994
:1023300088420ED00E4988420BD00E49884208D000
:102340000D49884205D00D49884202D00C49884287
:1023500004D1816801F00701062903D0016841F02A
:1023600001010160002070470000014000040040AE
:1023700000080040000C0040000401400040014003
:10238000001800400168CA6822F00102CA600168B2
:102390000A6A41F211131A4207D10A6A9B101A42C3
:1023A00003D10A6822F001020A60012180F83D1081
:1023B0000020704770B5044690F83C0000250128C5
:1023C00017D0012684F83C60022084F83D00206884
:1023D000826822F0770222F47F42826008685028E7
:1023E00038D00DDC20284FD005DC90B3102811D157
:1023F0004AE0022070BD302846D040280AD13BE098
:1024000060282FD070280DD0B0F5805F03D0B0F5D4
:10241000005F12D0012584F83D60002084F83C0064
:10242000284670BDCB68D1E90121206801F0E9FDA3
:102430002068816841F0770109E0CB68D1E901218A
:10244000206801F0DEFD2068816841F480418160F0
:10245000E1E719E0CA684968206801F0A7FE502149
:10246000206806E0CA684968206801F0B0FE602173
:10247000206801F0D0FDCEE7CA684968206801F005
:1024800095FE40212068F4E7226801461046F0E7F7
:1024900070472DE9F04104460068C66805694FF0B1
:1024A0000007A90713D5B10711D5F91E0161012055
:1024B0002077206880698007204602D0FFF7E8FF78
:1024C00004E000F0C3F8204600F055F927776807CC
:1024D00016D5700714D521686FF00400086102203A
:1024E00020772068806910F4407F204602D0FFF7F3
:1024F000CFFF04E000F0AAF8204600F03CF927776F
:10250000280715D5300713D521686FF0080008613A
:10251000042020772068C0698007204602D0FFF79A
:10252000B7FF04E000F092F8204600F024F9277786
:10253000E80616D5F00614D521686FF01000086182
:10254000082020772068C06910F4407F204602D020
:10255000FFF79EFF04E000F079F8204600F00BF949
:102560002777E80708D0F00706D021686FF0010050
:102570000861204600F064F9280608D5300606D523
:1025800021686FF0800008612046FFF7D3FD6806E0
:1025900008D5700606D521686FF040000861204616
:1025A00000F0AEF9A8060AD5B00608D521686FF08C
:1025B000200008612046BDE8F041FFF7BCBDBDE842
:1025C000F081000030B587B0044614216846FDF75D
:1025D00043FE2468184D0020184902220323AC4210
:1025E00012D10C6844F010040C60096801F010016D
:1025F00005914FF4D4410091CDE901200120CDE9AE
:10260000033069460E4812E00E4DAC4211D10C6801
:1026100044F004040C60096801F004010591691597
:102620000091CDE90120CDE9030369460648FFF793
:102630002DF907B030BD00000000014030380240E5
:10264000001002400004014000080240704770B5CD
:10265000044690F83C0000260D4601280FD00120CA
:1026600084F83C006AB1042A1DD0082A2FD00C2A15
:102670003FD00126002084F83C00304670BD022087
:1026800070BD206801F0D0FC2068816941F008012C
:1026900081612068816921F004018161206881697C
:1026A0002A69114311E0206801F0EEFC206881697D
:1026B00041F4006181612068816921F48061816158
:1026C000206881692A6941EA02218161D2E7206894
:1026D00001F010FD2068C16941F00801C161206866
:1026E000C16921F00401C1612068C1692A691143EF
:1026F00011E0206801F032FD2068C16941F40061F9
:10270000C1612068C16921F48061C1612068C1692B
:102710002A6941EA0221C161ACE710B5040003D087
:1027200094F83D0010B107E0012010BD002084F8AE
:102730003C00204600F01EF8022084F83D00211DD8
:10274000206801F0E5FB012084F8460084F83E0093
:1027500084F83F0084F8400084F8410084F8420087
:1027600084F8430084F8440084F8450084F83D0070
:10277000002010BD7047704710B50446022249B1D1
:1027800004290ED0082913D094F84100012816D04E
:10279000012010BD94F83E000128F9D184F83E20B4
:1027A0000FE094F83F000128F2D184F83F2008E0C0
:1027B00094F840000128EBD184F8402001E084F82F
:1027C00041200122206801F00FFC16492068164ABA
:1027D000884201D0904203D1436C43F400434364E8
:1027E0002068884213D0B0F1804F10D00F49884242
:1027F0000DD00F4988420AD00E49884207D0904236
:1028000005D00D49884202D00C49884204D1816824
:1028100001F00701062903D0016841F001010160C0
:10282000002010BD000001400004014000040040F1
:1028300000080040000C004000400140001800402B
:1028400010B527492DED028B0068884245D1254CF3
:102850002246A169B2F9060092ED101B012936D07B
:10286000022937D0042938D19FED1F8BB0EE480ADA
:10287000F0EE680A01F080F9A081208194ED101B30
:10288000B0EE480AF0EE680A00F040FD6081E0809A
:10289000E189084401B2012001F0EAF92089218A86
:1028A000084401B2022001F0E3F96089618A08441A
:1028B00001B2032001F0DCF9A089A18ABDEC028BF2
:1028C000084401B2BDE81040042001F0D1B99FEDE9
:1028D000088BCBE79FED088BC8E7BDEC028B10BDE2
:1028E000000400400000002000000000008056C0EE
:1028F00000000000000000000000000000805640C2
:10290000704738B5044690F84200202801D00220D4
:1029100038BD61B15AB101202063002060632046B8
:1029200001F00AFE0028F3D1216B012901D001201A
:1029300038BD21680A684968009121680C3151E866
:10294000002F42F0100241E80023002BF5D138BDE2
:1029500070B5044600682749884219D12648007896
:102960004B2815D024498022A1F18000FDF75BFCA3
:10297000224B21481A1F22A18038FDF779FC8021C3
:102980001D48FDF769FC80221B491F48FFF7B9FF6E
:102990001A4E1E4920680125243E884205D1B57093
:1029A00080221B491B48FFF7ACFF1B492068884267
:1029B00006D1B5701049802280311848FFF7A1FF79
:1029C00017492068884213D11148803001784D2979
:1029D0000ED10A4B13A108331A1F401CFDF748FC07
:1029E000BDE870400A49802280311048FFF789BF56
:1029F00070BD000000100140A00200202400002053
:102A000025642B25640000000805002000440040D8
:102A1000200100205005002000140140E0050020A6
:102A20000048004025662B25660000009805002020
:102A300070470000F8B5016804460868CA684B6929
:102A400010F00F0F4FF0000559D003F0010602F40B
:102A50009077374365D0C10705D0D10503D5616CA8
:102A600041F001016164410705D5D90703D0616CCC
:102A700041F002016164810705D5D90703D0616C7B
:102A800041F004016164010707D502F020013143E0
:102A900003D0616C41F008016164616C00293AD097
:102AA000800604D5900602D5204601F05DFC206822
:102AB0004069616CC0F38010090700D460B3204600
:102AC00001F01DFC20684069400621D520681430C3
:102AD00050E8001F21F0400140E80012002AF5D123
:102AE000E06BA8B16E490165E06BFEF72EFD002892
:102AF00011D0E06B016D01B0BDE8F04008478306DE
:102B00000FD593060DD52046BDE8F84001F02CBC4A
:102B10002046FFF78DFFF8BD2046FFF789FF65646B
:102B2000F8BD266B2023012E7DD1C6067BD5D606A7
:102B300079D508684868009048694FF00206400659
:102B400041D5E16B086840680004000CE8D0A28D14
:102B50008242E5D9E085C869B0F5807F2DD0206834
:102B60000C3050E8001F21F4807140E80012002A68
:102B7000F5D12068143050E8001F21F0010140E831
:102B80000012002AF5D12068143050E8001F21F00F
:102B9000400140E80012002AF5D184F84230256354
:102BA00020680C3050E8001F21F0100140E80012AE
:102BB000002AF5D1E06BFEF77FFC6663A08DE18D06
:102BC000401A81B22AE0A08DE18D401A81B2E08DD9
:102BD0000028A5D00029A3D022680C3252E8000FAB
:102BE00020F4907042E80007002FF5D120681430DF
:102BF00050E8002F22F0010240E80027002FF5D115
:102C000084F84230256320680C3050E8002F22F011
:102C1000100240E80023002BF5D166632046FFF741
:102C200097FEF8BDFFE705062BD5150629D594F8C4
:102C300041002128F5D1A068B0F5805F01D120695D
:102C4000B0B1206A411C2162216800784860E08CA4
:102C5000401E0004000CE084E3D12068C16821F02C
:102C60008001C1602068C16841F04001C160D8E7BF
:102C7000206A0088C0F308004860206A801C206237
:102C8000E5E74006CDD55006CBD5CA68204622F0F0
:102C90004002CA6084F8413000F035FBC1E7000013
:102CA0000142000870B5040004D094F841000025EA
:102CB00010B106E0012070BD84F84050204600F0BD
:102CC00023F8242084F841002068C16821F40051D1
:102CD000C160204601F0AAFB2068016921F49041FF
:102CE00001612068416921F02A0141612068C168C1
:102CF00041F40051C1606564202084F8410084F8EB
:102D000042006563002070BD2DE9F04F87B0044696
:102D100014216846FDF7A0FAE348E24E1038236814
:102D2000E14A0321DFF884E3002705154FF002088C
:102D3000B34234D1136843F400231360126802F4E1
:102D400000220592026842F001020260026802F06D
:102D500001020592026842F0040202600068CDF8A8
:102D6000008000F004000E460824CDE90440CDE9BF
:102D700002766946CDF804807046FEF787FD02971B
:102D8000CDE90364CDE900586946C948FEF77EFDE8
:102D9000002203213420FEF7E5FE342063E0DFF853
:102DA00014C34FF0070B4FF040094FF0006A4FF487
:102DB000803663455CD1BC4A0027121D136843F07E
:102DC00010031360126802F010020592026842F0CC
:102DD000010202600068CDE9027100F00100059077
:102DE0004FF4C060CDE90008CDF810B069467046D8
:102DF000FEF74CFDDFF8C482AF494046C8F800102A
:102E0000C0E901A7C0E90375C8F81470C8F81870C4
:102E1000C8E90776C8F82470FEF77AFC08B1FEF717
:102E2000BBFAA64FC4F83C80A3486037C8F83840C6
:102E30007830C7F80890C7E9000A0020C7E9030501
:102E40007861B861C7E9070678623846FEF760FC2A
:102E500008B1FEF7A1FAA763002211462520BC6342
:102E6000FEF780FE2520FEF76FFE07B0BDE8F08F6D
:102E7000DFF84CC2634556D11368002743F4003392
:102E80001360126802F400320592026842F00102F7
:102E900002600068CDE9027100F0010005900C208D
:102EA000CDE90008CDF810B069467046FEF7EEFC9B
:102EB000DFF80882834908F1C0084046C8F80010CE
:102EC000C0E901A7C0E90375C8F81470C8F8187004
:102ED000C8E90776C8F82470FEF71AFC08B1FEF7B7
:102EE0005BFA794FC4F83C807648C8F8384018300F
:102EF000C7F80890C7E9000A0020C7E90305786110
:102F0000B861C7E9070678623846FEF701FC08B1E8
:102F1000FEF742FAA763002211462620BC63FEF7A3
:102F200021FE26209FE7DFF8A4C1634559D113682D
:102F3000002743F480231360126802F48022059274
:102F4000026842F008020260006802AB00F008006C
:102F500005904FF44070CDE90008012083E8030894
:102F600069465B48FEF792FCDFF85C81554908F141
:102F7000600860394046C8F80010C0E901A7C0E900
:102F80000375C8F81470C8F81870C8E90776C8F84F
:102F90002470FEF7BDFB08B1FEF7FEF94A4FC4F8F6
:102FA0003C804848C037C8F838403038C7F80890E7
:102FB000C7E9000A0020C7E903057861B861C7E9DD
:102FC000070678623846FEF7A3FB08B1FEF7E4F97E
:102FD000A763002211462720BC63FEF7C3FD27200C
:102FE00041E73C4A93427FF440AF2F4ABA46121D54
:102FF000136843F020031360126802F02002059268
:10300000026842F0040202600068029700F00400C7
:103010000590C020CDE900080820CDE903106946DD
:103020002348FEF733FC2449DFF8AC8018394046CA
:103030004FF0206BC8F80010C0E901B7C0E9037574
:10304000C8F81470C8F81870C8E90776C8F8247072
:10305000FEF75EFB08B1FEF79FF91F4FC4F83C80F6
:1030600015486037C8F838406030C7F80890C7E99D
:10307000000BC7E903A5C7F814A0C7F818A0C7E953
:1030800007A63846C7F824A0FEF742FB08B1FEF7B2
:1030900083F9A763002202214720BC63FEF762FD8B
:1030A0004720E0E6004C004040380240000002406B
:1030B0000008024000100140406402402806002041
:1030C000004400408860024048070020004800405B
:1030D000000C0240001401406808002090F84230C3
:1030E000202B01D00220704721B11AB100230363C5
:1030F00001F06ABA0120704770B506464A480025BB
:103100002DED048B8642494C17D14948617808441B
:1031100010F8010C0A280AD104F124031A1F45A152
:103120004348FDF7A5F842481838057665703F49D1
:103130000122091D3C48FFF7D1FF40493068884211
:103140006ED13B48E1781838227842540278552AEB
:103150005DD1491CC9B2E1700B2958D1417853297E
:1031600054D18178C278067A11440279A831114489
:1031700042790A4481795318C27913443344467A18
:10318000807A3344DBB2834240D101EB022000B2AB
:1031900000EE100ADFED2A0AB8EEC00A20EE200A7F
:1031A000DFED280A20EE200A10EE100AFDF78AFC57
:1031B00041EC180B9FED240B84ED108B53EC102B7E
:1031C000FDF76FFBFDF75FFC0A2190FBF1F201FBBD
:1031D00012009FED1F9B052853EC192B51EC180B87
:1031E00008DBFDF75EFB9FED1C1B53EC112BFDF77D
:1031F000B1FA01E0FDF755FBFDF745FCFDF732FCA8
:1032000053EC192BFDF7BFFBC4E91001E570012257
:10321000BDEC048BBDE8704004491148FFF75EBF68
:10322000BDEC048B70BD00000805002000000020EC
:10323000BC00002025642B2564000000004C0040E9
:1032400000000038000034430000000000408F40C0
:103250000000000000005940000000000000F03FA6
:10326000C004002070472DE9F843044690F841005F
:10327000984616460D46202802D00220BDE8F88365
:1032800085B17EB100206064212084F84100FEF702
:10329000FBFBA6848146E684A0682027B0F5805F0A
:1032A00002D003E00120E9E7206910B12E46002595
:1032B0000EE000260CE08021204601F0A0F9A8B91C
:1032C000C6B116F8010B21684860E08C401EE0840E
:1032D000E08C4B464FF00002CDF800800028EAD188
:1032E0004FF04001204601F08AF940B184F8417066
:1032F0000320C3E735F8020BC0F30800E3E784F8C6
:1033000041700020BAE77047FEE7000010B53C4C62
:1033100053EC112B2DED068B51EC100B9FED348BE4
:103320009FED359BFDF7BAFA41EC100B84ED060BCF
:1033300053EC102B94ED0A0B51EC100BFDF70AFA2D
:1033400041EC100B53EC182B84ED0A0BFDF7E6FB58
:1033500002D884ED0A8B0AE094ED0A0B53EC192B8A
:1033600051EC100BFDF7C2FB01D884ED0A9B94EDE4
:103370000A0B53EC102B94ED020B51EC100BFDF7E4
:1033800090FA94ED080B94ED068B41EC1A0B53EC7C
:10339000102B51EC180BFDF77EFA94ED041B53EC47
:1033A000112BFDF77EFA94ED000B41EC190B53EC59
:1033B000182B51EC100BFDF774FA53EC192BFDF799
:1033C000C9F953EC1A2BFDF7C5F9FDF75CFB00B208
:1033D000642801DB642004E06FF06301884200DCB4
:1033E000084684ED088B4042BDEC068B00B210BD50
:1033F000000000000000344000000000000034C065
:1034000058000020294808B5016841F40011016006
:10341000016801F400110091016841F4800101602C
:103420000068002200F48000009001210C20FEF7CB
:1034300099FB0C20FEF788FB002201210E20FEF7ED
:1034400091FB0E20FEF780FB002211461020FEF7B4
:1034500089FB1020FEF778FB002211461120FEF7B1
:1034600081FB1120FEF770FB002202213920FEF7BC
:1034700079FB3920FEF768FB002211463A20FEF75F
:1034800071FB3A20FEF760FB002202214520FEF787
:1034900069FB4520FEF758FB002211464620FEF747
:1034A00061FBBDE808404620FEF74EBB30380240C5
:1034B000F0B587B014216846FCF7CEFE33480024EF
:1034C000016841F004010160016801F00401059107
:1034D000016841F080010160016801F080010591FF
:1034E000016841F001010160016801F001010591ED
:1034F000016841F002010160016801F002010591DB
:10350000016841F010010160016801F010010591AE
:10351000016841F00801016000681D4F00F00800DB
:103520000590002204213846FEF7A8FA4FF4C07631
:10353000012231463846FEF7A1FA01254FF48810E2
:103540000095CDE9010469461248FEF79FF9042071
:10355000CDE900050320CDE9024069463846FEF773
:1035600095F911200096CDE90104022003906946E7
:103570003846FEF78BF9002211460620FEF7F2FAD4
:103580000620FEF7E1FA07B0F0BD00003038024037
:10359000000402400000024010B596B000240F94D1
:1035A00010941194129413941C2168461494FCF7FF
:1035B00053FE202107A8FCF74FFE35483349016030
:1035C0004FF4D261C0E901144FF47A71C0E90314D9
:1035D00044618461FEF722FE08B1FDF7DDFE4FF481
:1035E00080500F900FA92A48FEF7E4FE08B1FDF7BE
:1035F000D3FE2748FFF791F808B1FDF7CDFE1394ED
:1036000013A923481494FEF7C1FD08B1FDF7C4FEC9
:103610006020CDE9000402940394049405940022F0
:1036200069461B480694FFF712F808B1FDF7B4FE8F
:10363000042269461648FFF70AF808B1FDF7ACFE08
:10364000082269461248FFF702F808B1FDF7A4FE08
:103650000C2269460E48FEF7FAFF08B1FDF79CFE02
:103660000794089409944FF400500A94CDE90B4054
:1036700007A907480E94FEF75FFD08B1FDF78CFE21
:103680000348FEF79FFF16B010BD00000000014088
:10369000A003002010B586B00024174800940194C0
:1036A000029403940494134905940160A721C0E98E
:1036B000011442F21071C0E9031480218161FEF708
:1036C000ADFD08B1FDF768FE4FF4805000906946EB
:1036D0000948FEF76FFE08B1FDF75EFE049404A9E9
:1036E00005480594FEF752FD002801D0FDF754FE71
:1036F00006B010BD00040040E803002010B586B0FD
:1037000000241748009401940294039404941349EC
:1037100005940160A721C0E9011447F23051C0E9C6
:10372000031480218161FEF779FD08B1FDF734FEB5
:103730004FF48050009069460948FEF73BFE08B1FF
:10374000FDF72AFE049404A905480594FEF71EFD22
:10375000002801D0FDF720FE06B010BD0008004093
:103760003004002010B596B000240F9410941194EA
:10377000129413941C2108A81494FCF76DFD2021C9
:103780006846FCF769FD2848264901604FF4D2617C
:10379000C0E901144FF47A71C0E9031444618461F3
:1037A000FEF73CFD08B1FDF7F7FD4FF480500F9098
:1037B0000FA91D48FEF7FEFD08B1FDF7EDFD1A4803
:1037C000FEF7ABFF08B1FDF7E7FD139413A9164808
:1037D0001494FEF7DBFC08B1FDF7DEFD6020CDE9B7
:1037E00008040A940C940D940C2208A90E480E9417
:1037F000FEF72DFF08B1FDF7CFFD00944FF4005008
:10380000CDE9044002940194039469460648079464
:10381000FEF792FC08B1FDF7BFFD0348FEF7D2FEAC
:1038200016B010BD00040140780400200C4810B50B
:103830000A4901604FF4E1314160002181600C22AE
:10384000C160C0E904128161C161FFF72BFA002851
:1038500003D0BDE81040FDF79FBD10BD004C0040F7
:10386000C00400200C4810B50A4901604FF4E13152
:103870004160002181600C22C160C0E904128161B5
:10388000C161FFF70FFA002803D0BDE81040FDF733
:1038900083BD10BD00100140080500200C4810B584
:1038A0000A4901604FF4E1314160002181600C223E
:1038B000C160C0E904128161C161FFF7F3F900281A
:1038C00003D0BDE81040FDF767BD10BD00440040C7
:1038D000500500200C4810B50A4901604FF4E13151
:1038E0004160002181600C22C160C0E90412816145
:1038F000C161FFF7D7F9002803D0BDE81040FDF7FC
:103900004BBD10BD00480040980500200C4810B584
:103910000A4901604FF4E1314160002181600C22CD
:10392000C160C0E904128161C161FFF7BBF90028E1
:1039300003D0BDE81040FDF72FBD10BD00140140BD
:10394000E0050020FEE7FEE710B50021074C0A461F
:10395000002004EBC1131A54401CC0B28028FAD3D3
:10396000491CC9B20829F3D310BD00002809002062
:1039700010B500204FF47A720021491C9142FCD30B
:10398000401C9042F8D3012000F0B0F8BDE8104090
:10399000012000F0B9B870B500240646802525FA4C
:1039A00004F0304000D0012000F0AEF8012000F01B
:1039B0009DF8002000F09AF8641CE4B2082CEED3C5
:1039C000012000F093F8BDE87040002000F08EB8B0
:1039D00010B5012000F098F8012000F087F80020D1
:1039E00000F092F8BDE81040002000F07FB810B55C
:1039F000002000F089F8012000F078F8BDE81040C0
:103A0000012000F081B810B5FFF7B2FFAE2000F042
:103A100089F8D52000F086F8802000F083F8A820EF
:103A200000F080F83F2000F07DF8D32000F07AF815
:103A3000002000F077F8402000F074F8A12000F09A
:103A400071F8C82000F06EF8DA2000F06BF8122050
:103A500000F068F8812000F065F8CF2000F062F8EF
:103A6000D92000F05FF8F12000F05CF8DB2000F0D6
:103A700059F8302000F056F8A42000F053F8A620A2
:103A800000F050F88D2000F04DF8142000F04AF8B6
:103A9000AF2000F047F8FFF757FFBDE8104000F0F7
:103AA00011B810B50C4640F0B00000F03BF8102003
:103AB00040EA141000F036F804F00F00BDE81040A2
:103AC00000F030B870B5084D002400212046FFF703
:103AD000E8FF05EBC410802100F035F8641CE4B267
:103AE000082CF2D370BD00002809002010B5024652
:103AF00080210448FDF7C2FFBDE81040012000F01E
:103B00007BB900000004024010B502464FF48071FA
:103B10000348FDF7B3FFBDE81040012000F06CB989
:103B20000004024010B50446FFF752FF7820FFF76B
:103B300032FF0020FFF72FFF2046FFF72CFFBDE8E4
:103B40001040FFF754BF70B50D460646FFF740FF23
:103B50007820FFF720FF4020FFF71DFF002404E03E
:103B6000305DFFF718FF641CE4B2AC42F8D3BDE847
:103B70007040FFF73CBF704710B53B4C53EC112B26
:103B80002DED068B51EC100B9FED338B9FED349B8D
:103B9000FCF784FE41EC100B84ED0C0B53EC102B66
:103BA00094ED100B51EC100BFCF7D4FD41EC100B15
:103BB00053EC182B84ED100BFCF7B0FF02D884ED0A
:103BC000108B0AE094ED100B53EC192B51EC100BF9
:103BD000FCF78CFF01D884ED109B94ED100B53EC97
:103BE000102B94ED020B51EC100BFCF75AFE94EDE8
:103BF0000E0B94ED0C8B41EC190B53EC102B51EC8C
:103C0000180BFCF748FE94ED041B53EC112BFCF74A
:103C100048FE94ED000B41EC1A0B53EC182B51ECC1
:103C2000100BFCF73EFE53EC1A2BFCF793FD53EC04
:103C3000192BFCF78FFDFCF726FF00B2642801DB8F
:103C4000642004E06FF06301884200DC084684EDE4
:103C50000E8BBDEC068B10BD000000000000344050
:103C600000000000000034C0580000207047000031
:103C700038B5194CC307C1F100024FF0000515D04B
:103C80000029009509DB8AB200230121FDF765FBBD
:103C9000A0780028FCD0A57038BD002392B2194648
:103CA000FDF75BFBA0780028FCD0F4E70029009525
:103CB00008DB8AB200231946FDF74FFBA0780028E5
:103CC000FCD0E8E792B200230121FDF746FBA07883
:103CD0000028FCD0DFE7000000000020F8B5074610
:103CE0002048FEF74FFB0126FBB20022314630464A
:103CF0000096FDF732FB1C4CA0780028FCD0002574
:103D0000A570FBB22A46012103200096FDF725FB92
:103D1000A0780028FCD0A5700022FBB2114602203A
:103D20000096FDF71AFBA0780028FCD0A5700022B1
:103D3000FBB2114604200096FDF70FFBA078002887
:103D4000FCD0A57000F0D0F84FF42F7000F0A8FD63
:103D500004496FF0010009680861BDE8F8400148B6
:103D6000FEF7D0BAE803002000000020F8B5204993
:103D700007466FF00100096808611D48FEF702FB65
:103D80000126FBB20022314630460096FDF7E5FAE7
:103D9000184CA0780028FCD00025A570FBB22A465C
:103DA000012103200096FDF7D8FAA0780028FCD066
:103DB000A5700022FBB2114602200096FDF7CDFA55
:103DC000A0780028FCD0A5700022FBB21146042088
:103DD0000096FDF7C2FAA0780028FCD0A57000F08C
:103DE00083F8BDE8F8404FF42F7000F059BD000093
:103DF000E803002000000020F0B54FF461764FF09A
:103E0000E0220E4F16E03346984200D803469169EF
:103E10006FF0A6045C43641805D495698D4208DAF6
:103E2000A542FADA05E0E51994698C42FCDDAC4262
:103E3000FADCC01A0028E6D1F0BD0000588C020060
:103E4000FDF728BE30B593B030216846FCF704FA80
:103E500014210CA8FCF700FA1D480025016841F068
:103E600080510160006800F080501190194801688D
:103E700041F4804101600068022400F48040119008
:103E80000120039010200490009406940820CDE9AE
:103E90000750A820CDE9090404200B906846FDF7DF
:103EA0007FFF08B172B6FEE70CA90F2081E8310050
:103EB0004FF4A0500F904FF48050109005210CA8A3
:103EC000FDF782FE002801D072B6FEE713B030BDC8
:103ED00040380240007000400248016841F470011F
:103EE0000160704788ED00E010B50020FDF71FFA73
:103EF000034881780029FCD00021817010BD0000AA
:103F0000000000200148FEF7C4BA0000E8030020CA
:103F1000F0B50268294C2A4D2A4E2B4F2B4B4FF0FF
:103F2000804CA04209D0604507D0A84205D0B042DD
:103F300003D0B84201D0984204D122F0700E4A68F2
:103F400042EA0E02A0421BD0604519D0A84217D009
:103F5000B04215D0B84213D0984211D01C4DA8429F
:103F60000ED01C4DA8420BD01B4DA84208D01B4DB3
:103F7000A84205D01A4DA84202D01A4DA84203D13A
:103F800022F44075CA682A434D6922F080022A4310
:103F900002608A68C2620A688262A04201D09842C6
:103FA00001D109690163012141610169C90703D098
:103FB000016921F001010161F0BD00000000014034
:103FC0000004004000080040000C004000040140D4
:103FD00000400140004401400048014000180040FA
:103FE000001C00400020004010B501F01F0301211B
:103FF000046A99408C430462016A9A401143016249
:1040000010BD10B5846842EA032224F47F440A43B9
:104010002243826010BD826822F070020A4342F09F
:104020000701816070470000F0B5036A026A22F060
:104030000102026242688469124E24F073050C6822
:104040002C4323F002058B682B430D4DA84201D071
:10405000B04205D123F00807CB683B4323F00403AB
:10406000A84201D0B04205D14D6922F440721543F7
:104070008A692A4342608461496841630362F0BDF2
:104080000000014000040140F0B5026A036A23F019
:1040900010030362436884690D6824F4E64444EA2B
:1040A00005248D6822F0200242EA05120F4D104EC1
:1040B000A84201D0B04206D1CF6822F0800242EA85
:1040C000071222F04002A84201D0B04207D14D6948
:1040D00023F4406343EA85038D6943EA8503436023
:1040E0008461496881630262F0BD00000000014004
:1040F00000040140F0B5026A036A23F4807303628E
:104100004368C46922F4007224F073050C68124EEF
:104110002C438D6842EA05220E4DA84201D0B042E0
:1041200006D1CF6822F4006242EA072222F48062BC
:10413000A84201D0B04207D14D6923F4405343EA6D
:1041400005138D6943EA05134360C4614968C1637F
:104150000262F0BD000001400004014030B5046A75
:10416000026A22F4805202624268C3690D6823F435
:10417000E64343EA05238D6824F4005444EA0534F9
:10418000084DA84202D0084DA84204D14D6922F43E
:10419000804242EA85124260C36149680164046258
:1041A00030BD0000000001400004014010B5036A6A
:1041B000046A24F001040462846924F0F00444EAEF
:1041C000021423F00A020A438461026210BD10B592
:1041D000036A046A24F010040462846923F0A003D3
:1041E00024F4704444EA023243EA0111826101621C
:1041F00010BD00000148FEF71DBC0000C0040020F7
:1042000010B5806B0021C185C184FEF711FC10BD83
:1042100070B5846B2068406994F84110C0F3C010F9
:104220000025212904D118B1E584204600F08EF83C
:104230002068406994F84210C0F38010222904D10C
:1042400018B1E585204600F05AF8606C40F0100087
:1042500060642046FEF7ECFB70BD10B50146806B34
:10426000096809684FF00002C9052ED4C2850168AB
:104270000C3151E8003F23F4807341E80034002CF6
:10428000F5D10168143151E8003F23F0010341E802
:104290000034002CF5D10168143151E8003F23F0BF
:1042A000400341E80034002CF5D1202180F8421071
:1042B000016B012909D101680C3151E8003F23F05D
:1042C000100341E80034002CF5D14263016B012951
:1042D00002D0FEF711FF10BD818DFEF739FB10BD36
:1042E00010B5806B01214163016B012902D0FEF7FB
:1042F000B9FF10BD818D4908FEF72AFB10BD01688A
:104300000C3151E8002F22F4907241E80023002B79
:10431000F5D10168143151E8002F22F0010241E883
:104320000023002BF5D1016B012909D101680C3163
:1043300051E8002F22F0100241E80023002BF5D1B4
:10434000202180F8421000210163704701680C3180
:1043500051E8002F22F0C00241E80023002BF5D1E4
:10436000202180F84110704708B590F842102229AA
:1043700001D0022008BD82684FF480539A4201D1D7
:10438000016921B1816A9A421BD04AB10AE00268F0
:10439000816A5268C2F308020A80816A891C08E0B7
:1043A000026972B10268526802F07F020A70816A83
:1043B000491C8162C18D491E0904090CC18503D0C5
:1043C0001BE002685268F1E70168CA6822F0200227
:1043D000CA600168CA6822F48072CA6001684A69CA
:1043E00022F001024A61202180F84210002141633D
:1043F000026B012A03D0FEF77FFE002008BD016397
:1044000001680C3151E8002F22F0100241E800232E
:10441000002BF5D101680A68D20602D50A684968FE
:104420000091818DFEF794FAE7E7000070B504462D
:1044300000680169E26821F440511143016121697A
:10444000A068E26908436169114308432168CA68AA
:1044500049F20C639A430243CA6020684169A26929
:1044600021F440711143416131492068884202D0F2
:104470003049884202D1FDF751FC01E0FDF73EFCD6
:10448000E2690023192164253226B2F5004F6268E3
:1044900028D0A0FB0101930F9200FBF793FE014689
:1044A000B0FBF5F06FF01802504301EB800006EB13
:1044B0000010B0FBF5F000F0F002B1FBF5F002EBFC
:1044C0000012B1FBF5F06FF01803584301EB8000C8
:1044D00006EB0010B0FBF5F000F00F00216810446F
:1044E000886070BDA0FB010192185B41FBF76AFE7A
:1044F0000146B0FBF5F00201B1FBF5F06FF01803D7
:10450000584301EB800006EBC000B0FBF5F000F073
:10451000F80002EB4002B1FBF5F0584301EB8000DC
:1045200006EBC000B0FBF5F000F00700D6E7000096
:10453000001001400014014038B5816204468285B4
:10454000002013466064222284F84220E56B1B4A57
:10455000EA63E56B1A4A2A64E56B1A4AEA64E26B7D
:1045600010650A462168E06B091DFDF73BF92068DC
:10457000016840680090206948B120680C3050E81C
:10458000001F41F4807140E80012002AF5D1206834
:10459000143050E8001F41F0010140E80012002AE9
:1045A000F5D12068143050E8001F41F0400140E888
:1045B0000012002AF5D1002038BD00005B4200083F
:1045C000E14200081142000881628285C285002113
:1045D0004164222180F84210016921B10168CA6852
:1045E00042F48072CA6001684A6942F001024A617D
:1045F0000068C16841F02001C160002070472DE9CA
:10460000F843984617460D460446089E24E0701C61
:1046100022D0FDF739FAA0EB0800B0421AD8CEB18B
:104620002068C168490717D5802D15D0402D13D0BB
:104630000168C94309070FD401680025406800904C
:104640002046FFF75CFE0820606484F8405001209B
:10465000BDE8F8830320FBE72068006835EA000026
:1046600004D00020B842D2D00020F1E70120F9E7C1
:104670000148FEF7DFB90000080500200148FEF7F9
:10468000D9B90000500500200148FEF7D3B9000059
:10469000980500200148FEF7CDB90000E005002094
:1046A000FEE71FB5002200928DF8000001920292F1
:1046B000039201206A46112931D2DFE801F0090B8B
:1046C000101230143016181A1C1E30202429220013
:1046D0001F2000E020208DF8010002201FE0212093
:1046E000F9E72420F7E72720F5E73120F3E7332027
:1046F000F1E73520EFE73620EDE73720EBE73A200A
:10470000E9E73B20E7E742208DF801006C2003E059
:1047100043208DF801007A208DF8020003206B21E0
:104720001154411C104601F0F5F81FBD2DE9FF4161
:104730000027DDE90A4600978DF80000FD208DF87E
:1047400001008DF802100197100A8DF803008DF812
:1047500004208DF80530200E8DF80600200C0C9DED
:104760008DF807000297200A8DF8080003978DF84E
:1047700009406B208DF80A608DF80C008DF80B5005
:104780000D21684601F0C6F8BDE8FF810907090E52
:10479000002804DB00F1E02080F80014704700F0EE
:1047A0000F0000F1E02080F8141D704702E008C8F7
:1047B000121F08C1002AFAD170477047002001E09B
:1047C00001C1121F002AFBD1704730380A2801D2DC
:1047D00001207047002070472DE9FF472D4C1F46F0
:1047E0002DED028B90469FED2A8A0E9E894684ED20
:1047F0000A8A4FF0FF3584ED0B8A2B46012202A96D
:104800002548FEF730FD84ED0A8A142000F048F8B0
:1048100094ED0A0AB5EEC00AF1EE10FAF8D0BDEE3A
:10482000C00A3B464246494610EE100A00F084F9A1
:104830000128EDD184ED0A8A84ED0B8A142000F062
:104840002FF800BF94ED0B0AB5EEC00AF1EE10FA96
:10485000F8D0BDEEC00A33464246494610EE100A73
:1048600000F0B2F90128EDD184ED0B8A0020A0827E
:10487000E081608220822B46012208A10648FEF7D3
:10488000F2FC642000F00CF8BDEC028BBDE8FF8761
:1048900000000000000000209805002061000000DA
:1048A00078B500224FF0E0216FF07F4300924B611A
:1048B0008A6105230B610B4B4FF47A741B680AE085
:1048C0008A61B3FBF4F5C5F1807500958D69009E92
:1048D000B542FBD8401E0028F2DC086920F0010038
:1048E000086178BD540000202DE9F0474FF47A7537
:1048F00040F2616440F25D2840F6480942F6F23623
:1049000041F27C57012845D0022845D003287AD0AF
:1049100041F6B0060B2873D00C2872D00D2871D147
:10492000FA2000F0B5FF2846FFF7BAFF5F2000F03D
:1049300039FE0021084600F047FE2146012002F022
:10494000A7FE4146012002F0A3FE4946002000F0E8
:104950003BFE502000F026FE2846FFF7A1FF002175
:10496000084600F031FE2146012002F091FE31465A
:10497000002000F029FE822000F014FE2846FFF7F8
:104980008FFF842000F084FF0021BDE8F047002065
:1049900000F01ABE842000E0102000F079FF2846C5
:1049A000FFF77EFF5F2000F0FDFD0021084600F0CC
:1049B0000BFE2146012002F06BFE4146012002F071
:1049C00067FE4946002000F0FFFD502000F0EAFDA0
:1049D0002846FFF765FF0021084600F0F5FD214657
:1049E000012002F055FE3146002000F0EDFD82204E
:1049F00000F0D8FD2846FFF753FF3946C5E702E02F
:104A000036E037E068E0FA2000F042FF2846FFF782
:104A100047FF5F2000F0C6FD0021084600F0D4FDEE
:104A20002146012002F034FE4146012002F030FE12
:104A30004946002000F0C8FD502000F0B3FD284694
:104A4000FFF72EFF0021084600F0BEFD21460120A1
:104A500002F01EFE3146002000F0B6FD822000F07C
:104A6000A1FD2846FFF71CFF842000F011FFC4E7DA
:104A7000842000E0102000F00BFF2846FFF710FF15
:104A80005F2000F08FFD0021084600F09DFD2146CB
:104A9000012002F0FDFD4146012002F0F9FD4946EA
:104AA000002000F091FD502000F07CFD2846FFF72B
:104AB000F7FE0021084600F087FD2146012002F0A4
:104AC000E7FD3146002000F07FFD822000F06AFD06
:104AD0002846FFF7E5FE57E7BDE8F087F7B5124D2A
:104AE00004460F46686B4FF0FF3638B93346012253
:104AF00002A90E48FEF7B7FB012068638D3C272C06
:104B000010D2334601220AA10848FEF7ACFB384612
:104B100002F05EFE00209FED070A686385ED0A0A39
:104B20000120FEBD0020FEBD0000002098050020F1
:104B300061000000000000002DE9F041204C214BF5
:104B4000266B751C022E0ADD5F681F609E68C3E934
:104B50000160BB191844032390FBF3F008E043F80D
:104B60002600D3E900069B683044184490FBF5F01A
:104B70005342A0382563904212DA984210DD002596
:104B8000A582E58165822582C820FFF789FE0D4850
:104B900025630C38C560056145610120BDE8F081E1
:104BA000904205DB4842A082E0816082208205E0DD
:104BB000984203DCA182E181618221820020EDE73D
:104BC00000000020B00000202DE9F041214C224BD4
:104BD000266B751C022E0ADD5F681F609E68C3E9A4
:104BE0000160BB191844032390FBF3F008E043F87D
:104BF0002600D3E900069B683044184490FBF5F08A
:104C0000256355426A38904212DAA84210DD002529
:104C1000A582E58165822582C820FFF741FE0E4806
:104C200025630C38C560056145610120BDE8F08150
:104C30000BB2494209B2904204DBA382E381618254
:104C4000218205E0A84203DCA182E1816382238204
:104C50000020EBE700000020B00000202DED028BCB
:104C6000FCF720FFFFF7EEF8FEF722FCFEF7CAFB89
:104C7000FEF7F8FDFEF712FEFEF72CFEFEF78CFCA9
:104C8000FEF744FEFEF7D2FDFEF704FDFEF736FD0B
:104C9000FEF768FD3220FFF703FEFEF7B4FE802228
:104CA000FD49FE48FDF72DFE8022FD49FD48FDF738
:104CB00028FEFB4980228031FB48FDF722FEF649A1
:104CC00080228031F948FDF71CFE0122F849F9489D
:104CD000FEF704FAF6494FF47A7305223831F548A5
:104CE000FEF7C1FA4FF4FA60FFF7DAFD0021F2484F
:104CF000FDF742FD0421F048FDF73EFD0C21EF4891
:104D0000FDF73AFDED480025006805646B1E0122A1
:104D1000EBA1E548FEF7A7FA0021084600F054FC95
:104D2000822000F03FFCE748FDF7ECFADFF894B38F
:104D30006FF00108DBF80000C0F81080842000F05C
:104D4000A7FD0020FEF7CAFFD94C02E00A20FFF7BA
:104D5000A7FDE0690028F9D04FF0FF330122D8A168
:104D6000D148FEF780FA6420FFF79AFDD0494FF44E
:104D70007A7305223831CF48FEF775FAC820FFF75D
:104D80008FFD782296210120FCF708FB6427A7827B
:104D9000E78167822782012640F27E40A661FFF705
:104DA0007FFD6420FEF79AFFA582E581658225825A
:104DB0006420A661FFF774FD4FF0140AA4F814A054
:104DC000A4F80EA06FF01309A4F81290A4F81090A4
:104DD00040F24C40A661FFF763FDA582E581658244
:104DE00025826420FFF75CFDDBF80010C1F810801D
:104DF000B448FDF7C7FA0A20FFF752FD0020FEF77E
:104E0000B5FF7B202062606240F26161012002F008
:104E10003FFCAC48FDF776FA782296210120FCF79A
:104E2000BDFAA782E7816782278240F2B630A66189
:104E3000FFF736FD6420FEF751FFA582E58165820C
:104E400025826420A661FFF72BFDA4F81490A4F836
:104E50000E9014206082208240F206473846A661F8
:104E6000FFF71EFDA582E581658225826420FFF79C
:104E700017FD206A00F0BEFB1420A082E081A4F898
:104E80001290A4F810903846A661FFF709FDA5829C
:104E9000E581658225826420FFF702FD0A22322126
:104EA0000020FCF77BFA6FF03100A082E081608285
:104EB000208240F21450A661FFF7F2FC2820FEF792
:104EC0000DFFA582E581658225826420A661FFF73A
:104ED000E7FCA582E5816582258202279FED7A8B1A
:104EE000C4F8187094ED100B53EC182B51EC100B08
:104EF000FBF7FCFDF6D96420FFF7D2FC6C494FF4B8
:104F00007A73052238316B48FEF7ADF9A582E58149
:104F100065822582782296210120FCF73FFA9620AF
:104F2000A082E0816082208240F2E470A661FFF7F7
:104F3000B7FC6420FEF7D2FEA582E581658225825A
:104F40006420A661FFF7ACFCA582E581658225821D
:104F5000BB46A76194ED100B53EC182B51EC100BD2
:104F6000FBF7C4FDF6D96420FFF79AFCA4F814906F
:104F7000A4F80E90A4F812A0A4F810A04FF42F707B
:104F8000C4F818B0FFF78CFCA582E5816582258204
:104F90006420FFF785FC022301220021206A00F033
:104FA0000FFDA4F814A0A4F80EA0A4F81290A4F881
:104FB000109040F24C40C4F818B0FFF771FCA58285
:104FC000E581658225826420FFF76AFC5022642116
:104FD0000020FCF7E3F96FF06307A782E78167829F
:104FE00027824FF46170C4F818B0FFF759FC6420B1
:104FF000FEF774FEA582E581658225826420C4F8EF
:1050000018B0FFF74DFCA582E58165822582012657
:105010004FF44870A661FFF743FC50226421002042
:10502000FCF7BCF9A782E7816782278240F214501F
:10503000A661FFF735FC6420FEF750FEA582E581EE
:10504000658225826420A661FFF72AFCA4F81490EB
:10505000A4F80E90A4F812A0A4F810A04FF4D26007
:10506000A661FFF71DFCA582E5816582258264208B
:10507000FFF716FC002201231146206A00F0A0FC75
:10508000A4F814A0A4F80EA0A4F81290A4F810900C
:1050900040F24C40A6611BE0A00200200805002061
:1050A000200100205005002098050020E005002088
:1050B00000000020C0040020A0030020780400208D
:1050C00061000000E803002000000000008056405E
:1050D000FFF7E6FBA582E58165822582C820FFF700
:1050E000DFFB502264210020FCF758F9A782E781FA
:1050F0006782278240F27E40A661FFF7D1FB6420E1
:10510000FEF7ECFDA582E581658225826420A6611B
:10511000FFF7C6FBA582E581658225824FF0040872
:1051200040F2DC50C4F81880FFF7BAFB502264212B
:105130000020FCF733F9A782E781678227824FF4CA
:105140009670C4F81880FFF7ABFB6420FEF7C6FD2D
:10515000A582E581658225826420C4F81880FFF766
:105160009FFBA4F81490A4F80E90A4F812A0A4F841
:1051700010A040F28A20C4F81880FFF791FBA582A6
:10518000E581658225826420FFF78AFB606A00F072
:1051900031FA40F2DC50FFF783FBA4F814A0A4F826
:1051A0000EA0A4F81290A4F8109040F28A20C4F83F
:1051B0001880FFF775FBA582E58165822582642052
:1051C000FFF76EFB7810A082E0816082208240F2BF
:1051D0003A70C4F81880FFF763FB6420FEF77EFD89
:1051E000A582E5816582258240F2DC50A661FFF749
:1051F00057FB782296210120FCF7D0F89620A08258
:10520000E081608220824FF4FA60A661FFF748FBDC
:105210006420FEF763FDA582E58165822582C820B2
:10522000A661FFF73DFBA582E58165822582C4F872
:1052300018B000BF94ED100B53EC182B51EC100B71
:10524000FBF754FCF6D94FF4FA70FFF729FB6FF027
:105250001300A082E081A4F812A0A4F810A05F4679
:105260004FF42F70C4F818B0FFF71AFBA582E58140
:10527000658225826420FFF713FB022301220021AF
:10528000606A00F09DFB1420A082E08140426082B1
:10529000208240F24C494846A761FFF701FBA582F6
:1052A000E581658225826420FFF7FAFA50226421A5
:1052B0000020FCF773F86FF06306A682E681668231
:1052C00026824FF46170A761FFF7EAFA6420FEF7C7
:1052D00005FDA582E581658225826420A761FFF72F
:1052E000DFFAA582E5816582258201204FF44877A7
:1052F000A0613846FFF7D4FA502264210020FCF761
:105300004DF8A682E681668226820120A06140F2E5
:105310001450FFF7C5FA6420FEF7E0FCA582E58192
:10532000658225820120A0616420FFF7B9FA6FF041
:105330001300A082E0811420608220820120A061FD
:105340007800FFF7ADFAA582E581658225826420A9
:10535000FFF7A6FA012300221946606A00F030FB2D
:105360001420A082E0814042608220820120A0615E
:105370004846FFF795FAA582E5816582258264207B
:10538000FFF78EFA502264210020FCF707F8A6826E
:10539000E681668226820120A06140F29C40FFF7F0
:1053A0007FFA6420FEF79AFCA582E581658225825A
:1053B0000120A0616420FFF773FAA582E581658270
:1053C000258246463846C4F81880FFF769FA6422F9
:1053D00096210020FBF7E2FF6FF09500A082E081AC
:1053E0006082208240F2DC50A661FFF759FA642007
:1053F000FEF774FCA582E581658225826420A661A2
:10540000FFF74EFA6148FCF7BDFF0020FEF766FC8F
:105410005E48FCF7B7FF4FF45271012002F038F9F3
:105420005A48FCF76FFF6420FFF73AFA9FED588A5D
:105430004FF0FF3384ED0A8A012256A15648FDF74A
:1054400012FF6FF00908A4F81480A4F80E800A2750
:10545000678227821420A661FFF722FA1420FFF743
:105460001FFA94ED0A0AB5EEC00AF1EE10FAF5D073
:10547000B946DFF828B147461420FFF711FAA78292
:10548000E781A4F81290A4F81090A661A06A58458C
:10549000F2DAA582E5816582A9462582C820FFF758
:1054A000FFF94FF0FF3843460122AFF2EC313A48A2
:1054B000FDF7D9FEC820FFF7F3F93448FCF762FF87
:1054C0000021012002F0E4F83048FCF71BFFC8205F
:1054D000FFF7E6F96FF01305A582E5816582258265
:1054E00084ED0A8A434601222AA12B48FDF7BBFE20
:1054F0001420FFF7D5F91420FFF7D2F994ED0A0A2A
:10550000B5EEC00AF1EE10FAF5D0DFF894B0142031
:10551000FFF7C6F9A782E78167822782A661A06AA2
:105520005845F4DDA4F81490A4F80E90A4F8129055
:105530004F46A4F8109043460122AFF27C41164832
:10554000FDF791FEC820FFF7ABF9A782E7816782DC
:10555000278243460122AFF298410F48FDF783FEB0
:105560001420FFF79DF9A582E581A4F812A0A4F804
:1055700010A0C820A661FFF793F9A782E781678290
:1055800027826420FFF78CF9FEE70000E803002083
:105590000000000079000000980500200000D143C1
:1055A0000000574300EB80004000092190FBF1F020
:1055B00040000321643090FBF1F002490968486320
:1055C00000207047A00300203EB5002401228DE892
:1055D0001600C1B22346C8220620FFF7A7F80448E8
:1055E00001780029FCD00470BDE83E4000F0C8B945
:1055F000020000202DE9F041A24F05466FF00106A0
:10560000386806613846FCF7BDFE0A20FFF748F906
:105610000020FEF7ABFB41F250410020FFF7D4FF22
:105620009FED990A994C40F241107B2D84ED0A0AB6
:1056300084ED0B0A35D0842D61D0D52D7ED0E72D99
:105640007DD085425AD11420FFF72AF994ED0A0A39
:1056500062220121BDEEC00A10EE100AFFF73EFAE9
:105660000128F0D11420FFF71BF994ED0A0A6722F4
:105670000221BDEEC00A10EE100AFFF72FFA012832
:10568000F0D11420FFF70CF994ED0A0A72220321DD
:10569000BDEEC00A10EE100AFFF720FA0128F0D183
:1056A000E9E01420FFF7FCF894ED0A0A72220121C8
:1056B000BDEEC00A10EE100AFFF710FA0128F0D173
:1056C0001420FFF7EDF894ED0A0A67220221BDEEDF
:1056D000C00A10EE100AFFF701FA0128F0D11420D9
:1056E000FFF7DEF894ED0A0A62220321BDEEC00A3C
:1056F00010EE100AFFF7F2F90128F0D18BE0142028
:10570000FFF7CEF894ED0A0A72220121BDEEC00A1D
:1057100010EE100AFFF7E2F90128F0D11420FFF78C
:10572000BFF894ED0A0A62220221BDEEC00A10EE13
:10573000100AFFF7D3F90128F0D101E010E03DE0B5
:105740001420FFF7ADF894ED0A0A67220321BDEE9D
:10575000C00A10EE100AFFF7C1F90128EDD18AE066
:105760001420FFF79DF894ED0A0A67220121BDEE8F
:10577000C00A10EE100AFFF7B1F90128F0D1142089
:10578000FFF78EF894ED0A0A72220221BDEEC00ADC
:1057900010EE100AFFF7A2F90128F0D11420FFF74C
:1057A0007FF894ED0A0A62220321BDEEC00A10EED2
:1057B000100AFFF793F90128F0D12CE01420FFF72D
:1057C0006FF894ED0A0A67220121BDEEC00A10EEBF
:1057D000100AFFF783F90128F0D11420FFF760F8D1
:1057E00094ED0A0A62220221BDEEC00A10EE100AF0
:1057F000FFF774F90128F0D11420FFF751F894ED68
:105800000A0A72220321BDEEC00A10EE100AFFF749
:1058100065F90128F0D1B5F59C7F2CD11420FFF754
:105820003FF894ED0A0A62220121BDEEC00A10EE93
:10583000100AFFF753F90128F0D11420FFF730F8D0
:1058400094ED0A0A72220221BDEEC00A10EE100A7F
:10585000FFF744F90128F0D11420FFF721F894ED67
:105860000A0A67220321BDEEC00A10EE100AFFF7F4
:1058700035F90128F0D138680661BDE8F0410148EA
:10588000FCF740BDE80300200000000000000020FD
:1058900000EB80004000092190FBF1F04000032163
:1058A000643090FBF1F003490A30096888630020F6
:1058B00070470000A003002001B54FF0FF33012224
:1058C00069460248FDF7CFFC08BD000050050020E6
:1058D00001B54FF0FF33012269460248FDF7C3FCD2
:1058E00008BD0000E005002038B5054600200C4644
:1058F0008DF800008DF800009DF80000A04208D24D
:105900009DF80000285CFFF7D7FF9DF80000401CC1
:10591000F0E738BD38B5054600200C468DF800008C
:105920008DF800009DF80000A04208D29DF800000C
:10593000285CFFF7CDFF9DF80000401CF0E738BD64
:105940002DE9F04100240C4D0C4F264642F2107810
:105950000D210520FBF7A6FC28780028FCD02E702E
:105960000220641CFEF79CFFB87810F0020F01D1F2
:105970004445EDDDBDE8F08102000020200100205B
:105980002DE9F04100240C4D0C4F264642F21078D0
:105990000D210620FEF785FE28780028FCD02E7009
:1059A0000220641CFEF77CFFB87810F0020F01D1D2
:1059B0004445EDDDBDE8F081020000202003002019
:1059C0002DE9FF4F85B01C4600297DD00B200390A8
:1059D0000C2002900D2001900A20FEF761FF05992E
:1059E000FE4EFF4FDFF8FC83DFF8FC93DFF8FCA3EB
:1059F000002540F2411040F2071B7B297DD084290D
:105A00007CD0D5297BD0E7297AD0B1F59C7F01F0F5
:105A10008882814275D11E2030803880A8F800002D
:105A2000A9F8000040F24C40CAF80040FEF738FFE9
:105A300035803D80A8F80050ED49A9F80050CAF81B
:105A400000400968A81E0861E948FCF79BFC0A2091
:105A5000FEF726FF0020FEF789F941F27C51002075
:105A6000FFF7B2FDE248FCF74DFCE2494FF47A70D3
:105A700009680864C820FEF713FF7A2000905B468F
:105A8000022205216220FEF7A7FE7A200122009063
:105A90005B4611466220FEF79FFEC820FEF700FF1E
:105AA000D44800680564D249A81E09680861D04836
:105AB000FCF768FC0A20FEF7F3FE0020FEF756F91B
:105AC0000398FEF711FF00E0CCE0C948FCF71AFC90
:105AD0006FF01D0BA6F800B0A7F800B0A8F800B052
